{
  "_format": "hh-sol-artifact-1",
  "contractName": "SocialDonation",
  "sourceName": "contracts/BlockTipContract.sol",
  "abi": [
    {
      "inputs": [
        {
          "internalType": "address",
          "name": "_reclaimAddress",
          "type": "address"
        }
      ],
      "stateMutability": "nonpayable",
      "type": "constructor"
    },
    {
      "anonymous": false,
      "inputs": [
        {
          "indexed": true,
          "internalType": "uint256",
          "name": "donationId",
          "type": "uint256"
        },
        {
          "indexed": true,
          "internalType": "address",
          "name": "beneficiary",
          "type": "address"
        }
      ],
      "name": "DonationClaimed",
      "type": "event"
    },
    {
      "anonymous": false,
      "inputs": [
        {
          "indexed": true,
          "internalType": "uint256",
          "name": "donationId",
          "type": "uint256"
        },
        {
          "indexed": true,
          "internalType": "address",
          "name": "donor",
          "type": "address"
        },
        {
          "indexed": false,
          "internalType": "string",
          "name": "fromId",
          "type": "string"
        },
        {
          "indexed": false,
          "internalType": "string",
          "name": "toId",
          "type": "string"
        },
        {
          "indexed": false,
          "internalType": "enum SocialDonation.Platform",
          "name": "platform",
          "type": "uint8"
        },
        {
          "indexed": false,
          "internalType": "address",
          "name": "token",
          "type": "address"
        },
        {
          "indexed": false,
          "internalType": "uint256",
          "name": "amount",
          "type": "uint256"
        },
        {
          "indexed": false,
          "internalType": "string",
          "name": "note",
          "type": "string"
        }
      ],
      "name": "DonationCreated",
      "type": "event"
    },
    {
      "inputs": [
        {
          "internalType": "uint256",
          "name": "donationId",
          "type": "uint256"
        },
        {
          "components": [
            {
              "components": [
                {
                  "internalType": "string",
                  "name": "provider",
                  "type": "string"
                },
                {
                  "internalType": "string",
                  "name": "parameters",
                  "type": "string"
                },
                {
                  "internalType": "string",
                  "name": "context",
                  "type": "string"
                }
              ],
              "internalType": "struct Claims.ClaimInfo",
              "name": "claimInfo",
              "type": "tuple"
            },
            {
              "components": [
                {
                  "components": [
                    {
                      "internalType": "bytes32",
                      "name": "identifier",
                      "type": "bytes32"
                    },
                    {
                      "internalType": "address",
                      "name": "owner",
                      "type": "address"
                    },
                    {
                      "internalType": "uint32",
                      "name": "timestampS",
                      "type": "uint32"
                    },
                    {
                      "internalType": "uint32",
                      "name": "epoch",
                      "type": "uint32"
                    }
                  ],
                  "internalType": "struct Claims.CompleteClaimData",
                  "name": "claim",
                  "type": "tuple"
                },
                {
                  "internalType": "bytes[]",
                  "name": "signatures",
                  "type": "bytes[]"
                }
              ],
              "internalType": "struct Claims.SignedClaim",
              "name": "signedClaim",
              "type": "tuple"
            }
          ],
          "internalType": "struct Reclaim.Proof",
          "name": "proof",
          "type": "tuple"
        }
      ],
      "name": "claim",
      "outputs": [],
      "stateMutability": "nonpayable",
      "type": "function"
    },
    {
      "inputs": [
        {
          "internalType": "string",
          "name": "fromId",
          "type": "string"
        },
        {
          "internalType": "string",
          "name": "toId",
          "type": "string"
        },
        {
          "internalType": "enum SocialDonation.Platform",
          "name": "platform",
          "type": "uint8"
        },
        {
          "internalType": "address",
          "name": "token",
          "type": "address"
        },
        {
          "internalType": "uint256",
          "name": "amount",
          "type": "uint256"
        },
        {
          "internalType": "string",
          "name": "note",
          "type": "string"
        }
      ],
      "name": "donate",
      "outputs": [],
      "stateMutability": "payable",
      "type": "function"
    },
    {
      "inputs": [
        {
          "internalType": "uint256",
          "name": "",
          "type": "uint256"
        }
      ],
      "name": "donations",
      "outputs": [
        {
          "internalType": "address",
          "name": "donor",
          "type": "address"
        },
        {
          "internalType": "string",
          "name": "fromId",
          "type": "string"
        },
        {
          "internalType": "string",
          "name": "toId",
          "type": "string"
        },
        {
          "internalType": "enum SocialDonation.Platform",
          "name": "platform",
          "type": "uint8"
        },
        {
          "internalType": "address",
          "name": "token",
          "type": "address"
        },
        {
          "internalType": "uint256",
          "name": "amount",
          "type": "uint256"
        },
        {
          "internalType": "bool",
          "name": "claimed",
          "type": "bool"
        }
      ],
      "stateMutability": "view",
      "type": "function"
    },
    {
      "inputs": [
        {
          "internalType": "string",
          "name": "data",
          "type": "string"
        },
        {
          "internalType": "string",
          "name": "target",
          "type": "string"
        }
      ],
      "name": "extractFieldFromContext",
      "outputs": [
        {
          "internalType": "string",
          "name": "",
          "type": "string"
        }
      ],
      "stateMutability": "pure",
      "type": "function"
    },
    {
      "inputs": [
        {
          "internalType": "uint256",
          "name": "donationId",
          "type": "uint256"
        }
      ],
      "name": "getDonationDetails",
      "outputs": [
        {
          "internalType": "address",
          "name": "donor",
          "type": "address"
        },
        {
          "internalType": "string",
          "name": "fromId",
          "type": "string"
        },
        {
          "internalType": "string",
          "name": "toId",
          "type": "string"
        },
        {
          "internalType": "enum SocialDonation.Platform",
          "name": "platform",
          "type": "uint8"
        },
        {
          "internalType": "address",
          "name": "token",
          "type": "address"
        },
        {
          "internalType": "uint256",
          "name": "amount",
          "type": "uint256"
        },
        {
          "internalType": "bool",
          "name": "claimed",
          "type": "bool"
        }
      ],
      "stateMutability": "view",
      "type": "function"
    },
    {
      "inputs": [],
      "name": "reclaimAddress",
      "outputs": [
        {
          "internalType": "address",
          "name": "",
          "type": "address"
        }
      ],
      "stateMutability": "view",
      "type": "function"
    }
  ],
  "bytecode": "0x608060405234801561001057600080fd5b5060405161197a38038061197a83398101604081905261002f91610054565b600080546001600160a01b0319166001600160a01b0392909216919091179055610082565b600060208284031215610065578081fd5b81516001600160a01b038116811461007b578182fd5b9392505050565b6118e9806100916000396000f3fe6080604052600436106100555760003560e01c80633755667e1461005a578063aeade0e614610090578063e9795283146100c8578063eb564d35146100ea578063f8626af81461011d578063f9b10e351461013d575b600080fd5b34801561006657600080fd5b5061007a61007536600461122e565b610150565b60405161008791906115d2565b60405180910390f35b34801561009c57600080fd5b506000546100b0906001600160a01b031681565b6040516001600160a01b039091168152602001610087565b3480156100d457600080fd5b506100e86100e336600461135d565b6104ff565b005b3480156100f657600080fd5b5061010a610105366004611345565b6107fe565b604051610087979695949392919061156d565b34801561012957600080fd5b5061010a610138366004611345565b610a45565b6100e861014b36600461128f565b610bbe565b805182516060918491849111156101ae5760405162461bcd60e51b815260206004820152601a60248201527f746172676574206973206c6f6e676572207468616e206461746100000000000060448201526064015b60405180910390fd5b60008060005b835185516101c2919061181a565b811161029457600160005b8551811080156101da5750815b15610262578581815181106101ff57634e487b7160e01b600052603260045260246000fd5b01602001516001600160f81b031916876102198386611802565b8151811061023757634e487b7160e01b600052603260045260246000fd5b01602001516001600160f81b0319161461025057600091505b8061025a8161186c565b9150506101cd565b5080156102815784516102759083611802565b93506001925050610294565b508061028c8161186c565b9150506101b4565b50806102b557604051806020016040528060008152509450505050506104f9565b815b84518110801561034357508481815181106102e257634e487b7160e01b600052603260045260246000fd5b6020910101516001600160f81b031916601160f91b14801561034157508461030b60018361181a565b8151811061032957634e487b7160e01b600052603260045260246000fd5b6020910101516001600160f81b031916601760fa1b14155b155b1561035a57806103528161186c565b9150506102b7565b82811115806103e5575084818151811061038457634e487b7160e01b600052603260045260246000fd5b6020910101516001600160f81b031916601160f91b1480156103e35750846103ad60018361181a565b815181106103cb57634e487b7160e01b600052603260045260246000fd5b6020910101516001600160f81b031916601760fa1b14155b155b156104065760405180602001604052806000815250955050505050506104f9565b6000610412848361181a565b67ffffffffffffffff81111561043857634e487b7160e01b600052604160045260246000fd5b6040519080825280601f01601f191660200182016040528015610462576020820181803683370190505b509050835b828110156104f05786818151811061048f57634e487b7160e01b600052603260045260246000fd5b01602001516001600160f81b031916826104a9878461181a565b815181106104c757634e487b7160e01b600052603260045260246000fd5b60200101906001600160f81b031916908160001a905350806104e88161186c565b915050610467565b50955050505050505b92915050565b6000600161050d818561181a565b8154811061052b57634e487b7160e01b600052603260045260246000fd5b60009182526020909120600690910201600581015490915060ff16156105935760405162461bcd60e51b815260206004820152601860248201527f446f6e6174696f6e20616c726561647920636c61696d6564000000000000000060448201526064016101a5565b6000546040516354b0734f60e11b81526001600160a01b039091169063a960e69e906105c390859060040161164e565b60006040518083038186803b1580156105db57600080fd5b505afa1580156105ef573d6000803e3d6000fd5b50505050600061062b8360000151604001516040518060400160405280600c81526020016b1129b7b1b4b0b624b2111d1160a11b815250610150565b90508160020160405161063e91906114d2565b604051809103902081805190602001201461069b5760405162461bcd60e51b815260206004820152601e60248201527f4f6e6c79207468652062656e65666963696172792063616e20636c61696d000060448201526064016101a5565b60058201805460ff19166001179055600382015461010090046001600160a01b03166106f7576004820154604051339180156108fc02916000818181858888f193505050501580156106f1573d6000803e3d6000fd5b506107cb565b600382015460048084015460405163a9059cbb60e01b8152339281019290925260248201526101009091046001600160a01b03169063a9059cbb90604401602060405180830381600087803b15801561074f57600080fd5b505af1158015610763573d6000803e3d6000fd5b505050506040513d601f19601f820116820180604052508101906107879190611207565b6107cb5760405162461bcd60e51b8152602060048201526015602482015274151bdad95b881d1c985b9cd9995c8819985a5b1959605a1b60448201526064016101a5565b604051339085907f61a53e66d53f4f66235e8c976cdb9036cd7c138e2ca272976ec85f8a349daddd90600090a350505050565b600060608082808080806001610814818b61181a565b8154811061083257634e487b7160e01b600052603260045260246000fd5b60009182526020918290206040805160e0810190915260069092020180546001600160a01b03168252600181018054929391929184019161087290611831565b80601f016020809104026020016040519081016040528092919081815260200182805461089e90611831565b80156108eb5780601f106108c0576101008083540402835291602001916108eb565b820191906000526020600020905b8154815290600101906020018083116108ce57829003601f168201915b5050505050815260200160028201805461090490611831565b80601f016020809104026020016040519081016040528092919081815260200182805461093090611831565b801561097d5780601f106109525761010080835404028352916020019161097d565b820191906000526020600020905b81548152906001019060200180831161096057829003601f168201915b5050509183525050600382015460209091019060ff1660018111156109b257634e487b7160e01b600052602160045260246000fd5b60018111156109d157634e487b7160e01b600052602160045260246000fd5b8152600382015461010090046001600160a01b0316602080830191909152600483015460408084019190915260059093015460ff1615156060928301528351908401519284015191840151608085015160a086015160c090960151929f949e50929c509a5090985091965090945092505050565b60018181548110610a5557600080fd5b6000918252602090912060069091020180546001820180546001600160a01b03909216935090610a8490611831565b80601f0160208091040260200160405190810160405280929190818152602001828054610ab090611831565b8015610afd5780601f10610ad257610100808354040283529160200191610afd565b820191906000526020600020905b815481529060010190602001808311610ae057829003601f168201915b505050505090806002018054610b1290611831565b80601f0160208091040260200160405190810160405280929190818152602001828054610b3e90611831565b8015610b8b5780601f10610b6057610100808354040283529160200191610b8b565b820191906000526020600020905b815481529060010190602001808311610b6e57829003601f168201915b5050505060038301546004840154600590940154929360ff808316946101009093046001600160a01b0316935090911687565b6000865111610c065760405162461bcd60e51b8152602060048201526014602482015273111bdb9bdc881251081a5cc81c995c5d5a5c995960621b60448201526064016101a5565b6000855111610c575760405162461bcd60e51b815260206004820152601a60248201527f42656e656669636961727920494420697320726571756972656400000000000060448201526064016101a5565b6001600160a01b038316610cb057813414610cab5760405162461bcd60e51b8152602060048201526014602482015273125b98dbdc9c9958dd0811551208185b5bdd5b9d60621b60448201526064016101a5565b610dd4565b3415610d0a5760405162461bcd60e51b8152602060048201526024808201527f455448206e6f7420616363657074656420666f7220746f6b656e20646f6e6174604482015263696f6e7360e01b60648201526084016101a5565b6040516323b872dd60e01b8152336004820152306024820152604481018390526001600160a01b038416906323b872dd90606401602060405180830381600087803b158015610d5857600080fd5b505af1158015610d6c573d6000803e3d6000fd5b505050506040513d601f19601f82011682018060405250810190610d909190611207565b610dd45760405162461bcd60e51b8152602060048201526015602482015274151bdad95b881d1c985b9cd9995c8819985a5b1959605a1b60448201526064016101a5565b60016040518060e00160405280336001600160a01b03168152602001888152602001878152602001866001811115610e1c57634e487b7160e01b600052602160045260246000fd5b81526001600160a01b03868116602080840191909152604083018790526000606090930183905284546001808201875595845292819020845160069094020180546001600160a01b0319169390921692909217815582820151805193949193610e8d93928501929190910190610f83565b5060408201518051610ea9916002840191602090910190610f83565b50606082015160038201805460ff191660018381811115610eda57634e487b7160e01b600052602160045260246000fd5b02179055506080820151600382018054610100600160a81b0319166101006001600160a01b039093169290920291909117905560a0820151600482015560c0909101516005909101805460ff1916911515919091179055600154604051339082907fd728fae2b567546652eb873a344f359813a6991fab95279f8e45f6cf544b0afc90610f72908b908b908b908b908b908b906115e5565b60405180910390a350505050505050565b828054610f8f90611831565b90600052602060002090601f016020900481019282610fb15760008555610ff7565b82601f10610fca57805160ff1916838001178555610ff7565b82800160010185558215610ff7579182015b82811115610ff7578251825591602001919060010190610fdc565b50611003929150611007565b5090565b5b808211156110035760008155600101611008565b80356001600160a01b038116811461103357600080fd5b919050565b600082601f830112611048578081fd5b8135602067ffffffffffffffff808311156110655761106561189d565b8260051b6110748382016117d1565b8481528381019087850183890186018a101561108e578788fd5b8793505b868410156104f0578035858111156110a8578889fd5b6110b68b88838d01016110cb565b84525060019390930192918501918501611092565b600082601f8301126110db578081fd5b813567ffffffffffffffff8111156110f5576110f561189d565b611108601f8201601f19166020016117d1565b81815284602083860101111561111c578283fd5b816020850160208301379081016020019190915292915050565b600081830360a0811215611148578182fd5b6040516040810167ffffffffffffffff828210818311171561116c5761116c61189d565b81604052829450608084121561118157600080fd5b611189611762565b93508535845261119b6020870161101c565b60208501526111ac604087016111f3565b60408501526111bd606087016111f3565b6060850152928252608085013592808411156111d857600080fd5b50506111e685838601611038565b6020820152505092915050565b803563ffffffff8116811461103357600080fd5b600060208284031215611218578081fd5b81518015158114611227578182fd5b9392505050565b60008060408385031215611240578081fd5b823567ffffffffffffffff80821115611257578283fd5b611263868387016110cb565b93506020850135915080821115611278578283fd5b50611285858286016110cb565b9150509250929050565b60008060008060008060c087890312156112a7578182fd5b863567ffffffffffffffff808211156112be578384fd5b6112ca8a838b016110cb565b975060208901359150808211156112df578384fd5b6112eb8a838b016110cb565b96506040890135915060028210611300578384fd5b81955061130f60608a0161101c565b94506080890135935060a089013591508082111561132b578283fd5b5061133889828a016110cb565b9150509295509295509295565b600060208284031215611356578081fd5b5035919050565b6000806040838503121561136f578182fd5b82359150602083013567ffffffffffffffff8082111561138d578283fd5b90840190604082870312156113a0578283fd5b6113a861178b565b8235828111156113b6578485fd5b8301606081890312156113c7578485fd5b6113cf6117ae565b8135848111156113dd578687fd5b6113e98a8285016110cb565b8252506020820135848111156113fd578687fd5b6114098a8285016110cb565b602083015250604082013584811115611420578687fd5b61142c8a8285016110cb565b604083015250825250602083013582811115611446578485fd5b61145288828601611136565b6020830152508093505050509250929050565b60008151808452815b8181101561148a5760208185018101518683018201520161146e565b8181111561149b5782602083870101525b50601f01601f19169290920160200192915050565b600281106114ce57634e487b7160e01b600052602160045260246000fd5b9052565b600080835482600182811c9150808316806114ee57607f831692505b602080841082141561150e57634e487b7160e01b87526022600452602487fd5b81801561152257600181146115335761155f565b60ff1986168952848901965061155f565b60008a815260209020885b868110156115575781548b82015290850190830161153e565b505084890196505b509498975050505050505050565b600060018060a01b03808a16835260e0602084015261158f60e084018a611465565b83810360408501526115a1818a611465565b9250506115b160608401886114b0565b94909416608082015260a0810192909252151560c090910152949350505050565b6020815260006112276020830184611465565b60c0815260006115f860c0830189611465565b828103602084015261160a8189611465565b905061161960408401886114b0565b6001600160a01b03861660608401526080830185905282810360a08401526116418185611465565b9998505050505050505050565b600060208083528351604082850152805160608086015261167260c0860182611465565b905082820151605f198087840301608088015261168f8383611465565b925060408401519350808784030160a088015250506116ae8183611465565b83870151601f1987830301604080890191909152815180518452808701516001600160a01b0316848801528082015163ffffffff908116928501929092526060908101519091169083015284015160a06080830181905281519083018190529193508401915060c0600582901b840181019190840190865b818110156117545760bf19868503018352611742848651611465565b94870194935091860191600101611726565b509198975050505050505050565b6040516080810167ffffffffffffffff811182821017156117855761178561189d565b60405290565b6040805190810167ffffffffffffffff811182821017156117855761178561189d565b6040516060810167ffffffffffffffff811182821017156117855761178561189d565b604051601f8201601f1916810167ffffffffffffffff811182821017156117fa576117fa61189d565b604052919050565b6000821982111561181557611815611887565b500190565b60008282101561182c5761182c611887565b500390565b600181811c9082168061184557607f821691505b6020821081141561186657634e487b7160e01b600052602260045260246000fd5b50919050565b600060001982141561188057611880611887565b5060010190565b634e487b7160e01b600052601160045260246000fd5b634e487b7160e01b600052604160045260246000fdfea26469706673582212203e9513fc4356929a454326d5e7d4c2f449192b3c9b519a95c32a4438dcab995764736f6c63430008040033",
  "linkReferences": {},
  "deployedLinkReferences": {}
}